{
  "_format": "hh-sol-artifact-1",
  "contractName": "EACAggregatorProxy",
  "sourceName": "contracts/Testnet/PriceFeed.sol",
  "abi": [
    {
      "inputs": [],
      "stateMutability": "nonpayable",
      "type": "constructor"
    },
    {
      "anonymous": false,
      "inputs": [
        {
          "indexed": true,
          "internalType": "int256",
          "name": "current",
          "type": "int256"
        },
        {
          "indexed": true,
          "internalType": "uint256",
          "name": "roundId",
          "type": "uint256"
        },
        {
          "indexed": false,
          "internalType": "uint256",
          "name": "updatedAt",
          "type": "uint256"
        }
      ],
      "name": "AnswerUpdated",
      "type": "event"
    },
    {
      "anonymous": false,
      "inputs": [
        {
          "indexed": true,
          "internalType": "uint256",
          "name": "roundId",
          "type": "uint256"
        },
        {
          "indexed": true,
          "internalType": "address",
          "name": "startedBy",
          "type": "address"
        },
        {
          "indexed": false,
          "internalType": "uint256",
          "name": "startedAt",
          "type": "uint256"
        }
      ],
      "name": "NewRound",
      "type": "event"
    },
    {
      "anonymous": false,
      "inputs": [
        {
          "indexed": true,
          "internalType": "address",
          "name": "from",
          "type": "address"
        },
        {
          "indexed": true,
          "internalType": "address",
          "name": "to",
          "type": "address"
        }
      ],
      "name": "OwnershipTransferRequested",
      "type": "event"
    },
    {
      "anonymous": false,
      "inputs": [
        {
          "indexed": true,
          "internalType": "address",
          "name": "from",
          "type": "address"
        },
        {
          "indexed": true,
          "internalType": "address",
          "name": "to",
          "type": "address"
        }
      ],
      "name": "OwnershipTransferred",
      "type": "event"
    },
    {
      "inputs": [],
      "name": "acceptOwnership",
      "outputs": [],
      "stateMutability": "nonpayable",
      "type": "function"
    },
    {
      "inputs": [],
      "name": "accessController",
      "outputs": [
        {
          "internalType": "contract AccessControllerInterface",
          "name": "",
          "type": "address"
        }
      ],
      "stateMutability": "view",
      "type": "function"
    },
    {
      "inputs": [],
      "name": "aggregator",
      "outputs": [
        {
          "internalType": "address",
          "name": "",
          "type": "address"
        }
      ],
      "stateMutability": "view",
      "type": "function"
    },
    {
      "inputs": [
        {
          "internalType": "address",
          "name": "_aggregator",
          "type": "address"
        }
      ],
      "name": "confirmAggregator",
      "outputs": [],
      "stateMutability": "nonpayable",
      "type": "function"
    },
    {
      "inputs": [],
      "name": "decimals",
      "outputs": [
        {
          "internalType": "uint8",
          "name": "",
          "type": "uint8"
        }
      ],
      "stateMutability": "view",
      "type": "function"
    },
    {
      "inputs": [],
      "name": "description",
      "outputs": [
        {
          "internalType": "string",
          "name": "",
          "type": "string"
        }
      ],
      "stateMutability": "view",
      "type": "function"
    },
    {
      "inputs": [
        {
          "internalType": "uint256",
          "name": "_roundId",
          "type": "uint256"
        }
      ],
      "name": "getAnswer",
      "outputs": [
        {
          "internalType": "int256",
          "name": "",
          "type": "int256"
        }
      ],
      "stateMutability": "view",
      "type": "function"
    },
    {
      "inputs": [
        {
          "internalType": "uint80",
          "name": "_roundId",
          "type": "uint80"
        }
      ],
      "name": "getRoundData",
      "outputs": [
        {
          "internalType": "uint80",
          "name": "roundId",
          "type": "uint80"
        },
        {
          "internalType": "int256",
          "name": "answer",
          "type": "int256"
        },
        {
          "internalType": "uint256",
          "name": "startedAt",
          "type": "uint256"
        },
        {
          "internalType": "uint256",
          "name": "updatedAt",
          "type": "uint256"
        },
        {
          "internalType": "uint80",
          "name": "answeredInRound",
          "type": "uint80"
        }
      ],
      "stateMutability": "view",
      "type": "function"
    },
    {
      "inputs": [
        {
          "internalType": "uint256",
          "name": "_roundId",
          "type": "uint256"
        }
      ],
      "name": "getTimestamp",
      "outputs": [
        {
          "internalType": "uint256",
          "name": "",
          "type": "uint256"
        }
      ],
      "stateMutability": "view",
      "type": "function"
    },
    {
      "inputs": [],
      "name": "latestAnswer",
      "outputs": [
        {
          "internalType": "int256",
          "name": "",
          "type": "int256"
        }
      ],
      "stateMutability": "view",
      "type": "function"
    },
    {
      "inputs": [],
      "name": "latestRound",
      "outputs": [
        {
          "internalType": "uint256",
          "name": "",
          "type": "uint256"
        }
      ],
      "stateMutability": "view",
      "type": "function"
    },
    {
      "inputs": [],
      "name": "latestRoundData",
      "outputs": [
        {
          "internalType": "uint80",
          "name": "roundId",
          "type": "uint80"
        },
        {
          "internalType": "int256",
          "name": "answer",
          "type": "int256"
        },
        {
          "internalType": "uint256",
          "name": "startedAt",
          "type": "uint256"
        },
        {
          "internalType": "uint256",
          "name": "updatedAt",
          "type": "uint256"
        },
        {
          "internalType": "uint80",
          "name": "answeredInRound",
          "type": "uint80"
        }
      ],
      "stateMutability": "view",
      "type": "function"
    },
    {
      "inputs": [],
      "name": "latestTimestamp",
      "outputs": [
        {
          "internalType": "uint256",
          "name": "",
          "type": "uint256"
        }
      ],
      "stateMutability": "view",
      "type": "function"
    },
    {
      "inputs": [],
      "name": "owner",
      "outputs": [
        {
          "internalType": "address payable",
          "name": "",
          "type": "address"
        }
      ],
      "stateMutability": "view",
      "type": "function"
    },
    {
      "inputs": [
        {
          "internalType": "uint16",
          "name": "",
          "type": "uint16"
        }
      ],
      "name": "phaseAggregators",
      "outputs": [
        {
          "internalType": "contract AggregatorV2V3Interface",
          "name": "",
          "type": "address"
        }
      ],
      "stateMutability": "view",
      "type": "function"
    },
    {
      "inputs": [],
      "name": "phaseId",
      "outputs": [
        {
          "internalType": "uint16",
          "name": "",
          "type": "uint16"
        }
      ],
      "stateMutability": "view",
      "type": "function"
    },
    {
      "inputs": [
        {
          "internalType": "address",
          "name": "_aggregator",
          "type": "address"
        }
      ],
      "name": "proposeAggregator",
      "outputs": [],
      "stateMutability": "nonpayable",
      "type": "function"
    },
    {
      "inputs": [],
      "name": "proposedAggregator",
      "outputs": [
        {
          "internalType": "contract AggregatorV2V3Interface",
          "name": "",
          "type": "address"
        }
      ],
      "stateMutability": "view",
      "type": "function"
    },
    {
      "inputs": [
        {
          "internalType": "uint80",
          "name": "_roundId",
          "type": "uint80"
        }
      ],
      "name": "proposedGetRoundData",
      "outputs": [
        {
          "internalType": "uint80",
          "name": "roundId",
          "type": "uint80"
        },
        {
          "internalType": "int256",
          "name": "answer",
          "type": "int256"
        },
        {
          "internalType": "uint256",
          "name": "startedAt",
          "type": "uint256"
        },
        {
          "internalType": "uint256",
          "name": "updatedAt",
          "type": "uint256"
        },
        {
          "internalType": "uint80",
          "name": "answeredInRound",
          "type": "uint80"
        }
      ],
      "stateMutability": "view",
      "type": "function"
    },
    {
      "inputs": [],
      "name": "proposedLatestRoundData",
      "outputs": [
        {
          "internalType": "uint80",
          "name": "roundId",
          "type": "uint80"
        },
        {
          "internalType": "int256",
          "name": "answer",
          "type": "int256"
        },
        {
          "internalType": "uint256",
          "name": "startedAt",
          "type": "uint256"
        },
        {
          "internalType": "uint256",
          "name": "updatedAt",
          "type": "uint256"
        },
        {
          "internalType": "uint80",
          "name": "answeredInRound",
          "type": "uint80"
        }
      ],
      "stateMutability": "view",
      "type": "function"
    },
    {
      "inputs": [
        {
          "internalType": "address",
          "name": "_accessController",
          "type": "address"
        }
      ],
      "name": "setController",
      "outputs": [],
      "stateMutability": "nonpayable",
      "type": "function"
    },
    {
      "inputs": [
        {
          "internalType": "address",
          "name": "_to",
          "type": "address"
        }
      ],
      "name": "transferOwnership",
      "outputs": [],
      "stateMutability": "nonpayable",
      "type": "function"
    },
    {
      "inputs": [],
      "name": "version",
      "outputs": [
        {
          "internalType": "uint256",
          "name": "",
          "type": "uint256"
        }
      ],
      "stateMutability": "view",
      "type": "function"
    },
    {
      "inputs": [
        {
          "internalType": "uint80",
          "name": "roundId",
          "type": "uint80"
        },
        {
          "internalType": "int256",
          "name": "answer",
          "type": "int256"
        },
        {
          "internalType": "uint256",
          "name": "startedAt",
          "type": "uint256"
        },
        {
          "internalType": "uint256",
          "name": "updatedAt",
          "type": "uint256"
        },
        {
          "internalType": "uint80",
          "name": "answeredInRound",
          "type": "uint80"
        }
      ],
      "name": "writeLatestRoundData",
      "outputs": [],
      "stateMutability": "nonpayable",
      "type": "function"
    }
  ],
  "bytecode": "0x608060405234801561001057600080fd5b50600080546001600160a01b031916331790556119a7806100326000396000f3fe608060405234801561001057600080fd5b50600436106101585760003560e01c806392eefe9b116100c3578063c15973041161007c578063c1597304146102e5578063ced683c71461030e578063e8c4be301461035c578063f2fde38b1461036f578063f8a2abd314610382578063feaf968c1461039557600080fd5b806392eefe9b1461026c5780639a6fc8f51461027f578063a928c09614610292578063b5ab58dc146102a5578063b633620c146102b8578063bc43cbaf146102cb57600080fd5b8063668a0f0211610115578063668a0f02146102225780637284e4161461022a57806379ba50971461023f5780638205bf6a146102495780638da5cb5b146102515780638f6b4d911461026457600080fd5b8063245a7bfc1461015d578063313ce5671461018d57806350d25bcd146101a757806354fd4d50146101bd57806358303b10146101c55780636001ac53146101db575b600080fd5b6002546201000090046001600160a01b03165b6040516001600160a01b0390911681526020015b60405180910390f35b61019561039d565b60405160ff9091168152602001610184565b6101af61041e565b604051908152602001610184565b6101af6104e1565b60025460405161ffff9091168152602001610184565b6101ee6101e93660046114be565b61055d565b604080516001600160501b03968716815260208101959095528401929092526060830152909116608082015260a001610184565b6101af610655565b610232610709565b60405161018491906114ff565b610247610789565b005b6101af610829565b600054610170906001600160a01b031681565b6101ee6108dd565b61024761027a366004611532565b6109d3565b6101ee61028d3660046114be565b610a3e565b6102476102a0366004611532565b610afb565b6101af6102b336600461155b565b610b9e565b6101af6102c636600461155b565b610c5a565b60095461017090600160501b90046001600160a01b031681565b6101706102f3366004611574565b6004602052600090815260409020546001600160a01b031681565b61024761031c366004611598565b600580546001600160501b0396871669ffffffffffffffffffff199182161790915560069490945560079290925560085560098054919093169116179055565b600354610170906001600160a01b031681565b61024761037d366004611532565b610d0f565b610247610390366004611532565b610d8a565b6101ee610dd6565b6000600260000160029054906101000a90046001600160a01b03166001600160a01b031663313ce5676040518163ffffffff1660e01b8152600401602060405180830381865afa1580156103f5573d6000803e3d6000fd5b505050506040513d601f19601f8201168201806040525081019061041991906115ee565b905090565b600954600090600160501b90046001600160a01b03168015806104ae5750604051630d629b5f60e31b81526001600160a01b03821690636b14daf89061046d9033906000903690600401611611565b602060405180830381865afa15801561048a573d6000803e3d6000fd5b505050506040513d601f19601f820116820180604052508101906104ae9190611651565b6104d35760405162461bcd60e51b81526004016104ca90611673565b60405180910390fd5b6104db610eab565b91505090565b6000600260000160029054906101000a90046001600160a01b03166001600160a01b03166354fd4d506040518163ffffffff1660e01b8152600401602060405180830381865afa158015610539573d6000803e3d6000fd5b505050506040513d601f19601f820116820180604052508101906104199190611696565b6009546000908190819081908190600160501b90046001600160a01b03168015806105f55750604051630d629b5f60e31b81526001600160a01b03821690636b14daf8906105b49033906000903690600401611611565b602060405180830381865afa1580156105d1573d6000803e3d6000fd5b505050506040513d601f19601f820116820180604052508101906105f59190611651565b6106115760405162461bcd60e51b81526004016104ca90611673565b6003546001600160a01b03166106395760405162461bcd60e51b81526004016104ca906116af565b61064287610f03565b939b929a50909850965090945092505050565b600954600090600160501b90046001600160a01b03168015806106e55750604051630d629b5f60e31b81526001600160a01b03821690636b14daf8906106a49033906000903690600401611611565b602060405180830381865afa1580156106c1573d6000803e3d6000fd5b505050506040513d601f19601f820116820180604052508101906106e59190611651565b6107015760405162461bcd60e51b81526004016104ca90611673565b6104db610fbd565b6060600260000160029054906101000a90046001600160a01b03166001600160a01b0316637284e4166040518163ffffffff1660e01b8152600401600060405180830381865afa158015610761573d6000803e3d6000fd5b505050506040513d6000823e601f3d908101601f1916820160405261041991908101906116fc565b6001546001600160a01b031633146107dc5760405162461bcd60e51b815260206004820152601660248201527526bab9ba10313290383937b837b9b2b21037bbb732b960511b60448201526064016104ca565b60008054600180546001600160a01b03191690556040516001600160a01b0390911691339183917f8be0079c531659141344cd1fd0a4f28419497f9722a3daafe3b4186f6b6457e091a350565b600954600090600160501b90046001600160a01b03168015806108b95750604051630d629b5f60e31b81526001600160a01b03821690636b14daf8906108789033906000903690600401611611565b602060405180830381865afa158015610895573d6000803e3d6000fd5b505050506040513d601f19601f820116820180604052508101906108b99190611651565b6108d55760405162461bcd60e51b81526004016104ca90611673565b6104db61105d565b6009546000908190819081908190600160501b90046001600160a01b03168015806109755750604051630d629b5f60e31b81526001600160a01b03821690636b14daf8906109349033906000903690600401611611565b602060405180830381865afa158015610951573d6000803e3d6000fd5b505050506040513d601f19601f820116820180604052508101906109759190611651565b6109915760405162461bcd60e51b81526004016104ca90611673565b6003546001600160a01b03166109b95760405162461bcd60e51b81526004016104ca906116af565b6109c16110b5565b95509550955095509550509091929394565b6000546001600160a01b031633146109fd5760405162461bcd60e51b81526004016104ca906117a9565b600980546001600160a01b03909216600160501b027fffff0000000000000000000000000000000000000000ffffffffffffffffffff909216919091179055565b6009546000908190819081908190600160501b90046001600160a01b0316801580610ad65750604051630d629b5f60e31b81526001600160a01b03821690636b14daf890610a959033906000903690600401611611565b602060405180830381865afa158015610ab2573d6000803e3d6000fd5b505050506040513d601f19601f82011682018060405250810190610ad69190611651565b610af25760405162461bcd60e51b81526004016104ca90611673565b61064287611170565b6000546001600160a01b03163314610b255760405162461bcd60e51b81526004016104ca906117a9565b6003546001600160a01b03828116911614610b825760405162461bcd60e51b815260206004820152601b60248201527f496e76616c69642070726f706f7365642061676772656761746f72000000000060448201526064016104ca565b600380546001600160a01b0319169055610b9b8161125a565b50565b600954600090600160501b90046001600160a01b0316801580610c2e5750604051630d629b5f60e31b81526001600160a01b03821690636b14daf890610bed9033906000903690600401611611565b602060405180830381865afa158015610c0a573d6000803e3d6000fd5b505050506040513d601f19601f82011682018060405250810190610c2e9190611651565b610c4a5760405162461bcd60e51b81526004016104ca90611673565b610c53836112d1565b9392505050565b600954600090600160501b90046001600160a01b0316801580610cea5750604051630d629b5f60e31b81526001600160a01b03821690636b14daf890610ca99033906000903690600401611611565b602060405180830381865afa158015610cc6573d6000803e3d6000fd5b505050506040513d601f19601f82011682018060405250810190610cea9190611651565b610d065760405162461bcd60e51b81526004016104ca90611673565b610c53836113b3565b6000546001600160a01b03163314610d395760405162461bcd60e51b81526004016104ca906117a9565b600180546001600160a01b0319166001600160a01b0383811691821790925560008054604051929316917fed8889f560326eb138920d842192f0eb3dd22b4f139c87a2c57538e05bae12789190a350565b6000546001600160a01b03163314610db45760405162461bcd60e51b81526004016104ca906117a9565b600380546001600160a01b0319166001600160a01b0392909216919091179055565b6009546000908190819081908190600160501b90046001600160a01b0316801580610e6e5750604051630d629b5f60e31b81526001600160a01b03821690636b14daf890610e2d9033906000903690600401611611565b602060405180830381865afa158015610e4a573d6000803e3d6000fd5b505050506040513d601f19601f82011682018060405250810190610e6e9190611651565b610e8a5760405162461bcd60e51b81526004016104ca90611673565b6005546006546007546008546009546001600160501b0394851694166109c1565b6000600260000160029054906101000a90046001600160a01b03166001600160a01b03166350d25bcd6040518163ffffffff1660e01b8152600401602060405180830381865afa158015610539573d6000803e3d6000fd5b60035460009081908190819081906001600160a01b0316610f365760405162461bcd60e51b81526004016104ca906116af565b600354604051639a6fc8f560e01b81526001600160501b03881660048201526001600160a01b0390911690639a6fc8f59060240160a060405180830381865afa158015610f87573d6000803e3d6000fd5b505050506040513d601f19601f82011682018060405250810190610fab91906117d9565b939a9299509097509550909350915050565b60408051808201825260025461ffff8116808352620100009091046001600160a01b031660208084018290528451633345078160e11b8152945160009561104e94939263668a0f02926004808401938290030181865afa158015611025573d6000803e3d6000fd5b505050506040513d601f19601f820116820180604052508101906110499190611696565b61144f565b6001600160501b031691505090565b6000600260000160029054906101000a90046001600160a01b03166001600160a01b0316638205bf6a6040518163ffffffff1660e01b8152600401602060405180830381865afa158015610539573d6000803e3d6000fd5b60035460009081908190819081906001600160a01b03166110e85760405162461bcd60e51b81526004016104ca906116af565b600360009054906101000a90046001600160a01b03166001600160a01b031663feaf968c6040518163ffffffff1660e01b815260040160a060405180830381865afa15801561113b573d6000803e3d6000fd5b505050506040513d601f19601f8201168201806040525081019061115f91906117d9565b945094509450945094509091929394565b6000806000806000806000611190886001600160501b0316604081901c91565b61ffff82166000908152600460208190526040808320549051639a6fc8f560e01b815267ffffffffffffffff8516928101929092529395509193509182918291829182916001600160a01b031690639a6fc8f59060240160a060405180830381865afa158015611204573d6000803e3d6000fd5b505050506040513d601f19601f8201168201806040525081019061122891906117d9565b9450945094509450945061124085858585858c611473565b9b509b509b509b509b505050505050505091939590929450565b60025460009061126f9061ffff166001611839565b60408051808201825261ffff9092168083526001600160a01b039094166020928301819052600280546201000083026001600160b01b031990911687171790556000948552600490925290922080546001600160a01b03191690921790915550565b600060016112e16010604061185b565b6112ec906002611952565b6112f6919061195e565b82111561130557506000919050565b61ffff604083811c91821660009081526004602052205483906001600160a01b03168061133757506000949350505050565b604051632d6ad63760e21b815267ffffffffffffffff831660048201526001600160a01b0382169063b5ab58dc906024015b602060405180830381865afa158015611386573d6000803e3d6000fd5b505050506040513d601f19601f820116820180604052508101906113aa9190611696565b95945050505050565b600060016113c36010604061185b565b6113ce906002611952565b6113d8919061195e565b8211156113e757506000919050565b61ffff604083811c91821660009081526004602052205483906001600160a01b03168061141957506000949350505050565b604051632d8cd88360e21b815267ffffffffffffffff831660048201526001600160a01b0382169063b633620c90602401611369565b69ffff0000000000000000604083901b1667ffffffffffffffff8216175b92915050565b6000806000806000611485868c61144f565b8a8a8a6114928a8c61144f565b939f929e50909c509a509098509650505050505050565b6001600160501b0381168114610b9b57600080fd5b6000602082840312156114d057600080fd5b8135610c53816114a9565b60005b838110156114f65781810151838201526020016114de565b50506000910152565b602081526000825180602084015261151e8160408501602087016114db565b601f01601f19169190910160400192915050565b60006020828403121561154457600080fd5b81356001600160a01b0381168114610c5357600080fd5b60006020828403121561156d57600080fd5b5035919050565b60006020828403121561158657600080fd5b813561ffff81168114610c5357600080fd5b600080600080600060a086880312156115b057600080fd5b85356115bb816114a9565b945060208601359350604086013592506060860135915060808601356115e0816114a9565b809150509295509295909350565b60006020828403121561160057600080fd5b815160ff81168114610c5357600080fd5b6001600160a01b03841681526040602082018190528101829052818360608301376000818301606090810191909152601f909201601f1916010192915050565b60006020828403121561166357600080fd5b81518015158114610c5357600080fd5b6020808252600990820152684e6f2061636365737360b81b604082015260600190565b6000602082840312156116a857600080fd5b5051919050565b6020808252601e908201527f4e6f2070726f706f7365642061676772656761746f722070726573656e740000604082015260600190565b634e487b7160e01b600052604160045260246000fd5b60006020828403121561170e57600080fd5b815167ffffffffffffffff8082111561172657600080fd5b818401915084601f83011261173a57600080fd5b81518181111561174c5761174c6116e6565b604051601f8201601f19908116603f01168101908382118183101715611774576117746116e6565b8160405282815287602084870101111561178d57600080fd5b61179e8360208301602088016114db565b979650505050505050565b60208082526016908201527527b7363c9031b0b63630b1363290313c9037bbb732b960511b604082015260600190565b600080600080600060a086880312156117f157600080fd5b85516117fc816114a9565b8095505060208601519350604086015192506060860151915060808601516115e0816114a9565b634e487b7160e01b600052601160045260246000fd5b61ffff81811683821601908082111561185457611854611823565b5092915050565b8082018082111561146d5761146d611823565b600181815b808511156118a957816000190482111561188f5761188f611823565b8085161561189c57918102915b93841c9390800290611873565b509250929050565b6000826118c05750600161146d565b816118cd5750600061146d565b81600181146118e357600281146118ed57611909565b600191505061146d565b60ff8411156118fe576118fe611823565b50506001821b61146d565b5060208310610133831016604e8410600b841016171561192c575081810a61146d565b611936838361186e565b806000190482111561194a5761194a611823565b029392505050565b6000610c5383836118b1565b8181038181111561146d5761146d61182356fea2646970667358221220e1fedf5162cf5ed493e290b6c9d16385780303694310ec056842185cbe212b3564736f6c63430008130033",
  "linkReferences": {},
  "deployedLinkReferences": {}
}