{
  "_format": "hh-sol-artifact-1",
  "contractName": "GrandOracle",
  "sourceName": "contracts/GrandOracle.sol",
  "abi": [
    {
      "inputs": [
        {
          "internalType": "address",
          "name": "_oracleOwner",
          "type": "address"
        }
      ],
      "stateMutability": "nonpayable",
      "type": "constructor"
    },
    {
      "anonymous": false,
      "inputs": [
        {
          "indexed": true,
          "internalType": "address",
          "name": "previousOwner",
          "type": "address"
        },
        {
          "indexed": true,
          "internalType": "address",
          "name": "newOwner",
          "type": "address"
        }
      ],
      "name": "OwnershipTransferred",
      "type": "event"
    },
    {
      "inputs": [
        {
          "internalType": "address",
          "name": "assetAddress",
          "type": "address"
        }
      ],
      "name": "latestRoundData",
      "outputs": [
        {
          "internalType": "uint80",
          "name": "roundId",
          "type": "uint80"
        },
        {
          "internalType": "int256",
          "name": "answer",
          "type": "int256"
        },
        {
          "internalType": "uint256",
          "name": "startedAt",
          "type": "uint256"
        },
        {
          "internalType": "uint256",
          "name": "updatedAt",
          "type": "uint256"
        },
        {
          "internalType": "uint80",
          "name": "answeredInRound",
          "type": "uint80"
        }
      ],
      "stateMutability": "view",
      "type": "function"
    },
    {
      "inputs": [],
      "name": "oracleManager",
      "outputs": [
        {
          "internalType": "address",
          "name": "",
          "type": "address"
        }
      ],
      "stateMutability": "view",
      "type": "function"
    },
    {
      "inputs": [],
      "name": "owner",
      "outputs": [
        {
          "internalType": "address",
          "name": "",
          "type": "address"
        }
      ],
      "stateMutability": "view",
      "type": "function"
    },
    {
      "inputs": [],
      "name": "renounceOwnership",
      "outputs": [],
      "stateMutability": "nonpayable",
      "type": "function"
    },
    {
      "inputs": [
        {
          "internalType": "address",
          "name": "_manager",
          "type": "address"
        }
      ],
      "name": "setOracleManager",
      "outputs": [],
      "stateMutability": "nonpayable",
      "type": "function"
    },
    {
      "inputs": [
        {
          "internalType": "address",
          "name": "newOwner",
          "type": "address"
        }
      ],
      "name": "transferOwnership",
      "outputs": [],
      "stateMutability": "nonpayable",
      "type": "function"
    },
    {
      "inputs": [
        {
          "internalType": "address[]",
          "name": "addressList",
          "type": "address[]"
        },
        {
          "internalType": "uint80[]",
          "name": "roundIds",
          "type": "uint80[]"
        },
        {
          "internalType": "int256[]",
          "name": "answers",
          "type": "int256[]"
        },
        {
          "internalType": "uint256[]",
          "name": "startedAts",
          "type": "uint256[]"
        },
        {
          "internalType": "uint256[]",
          "name": "updatedAts",
          "type": "uint256[]"
        },
        {
          "internalType": "uint80[]",
          "name": "answeredInRounds",
          "type": "uint80[]"
        }
      ],
      "name": "writeRoundData",
      "outputs": [],
      "stateMutability": "nonpayable",
      "type": "function"
    }
  ],
  "bytecode": "0x60806040523480156200001157600080fd5b506040516200128b3803806200128b8339818101604052810190620000379190620001d5565b620000576200004b6200009f60201b60201c565b620000a760201b60201c565b80600160006101000a81548173ffffffffffffffffffffffffffffffffffffffff021916908373ffffffffffffffffffffffffffffffffffffffff1602179055505062000207565b600033905090565b60008060009054906101000a900473ffffffffffffffffffffffffffffffffffffffff169050816000806101000a81548173ffffffffffffffffffffffffffffffffffffffff021916908373ffffffffffffffffffffffffffffffffffffffff1602179055508173ffffffffffffffffffffffffffffffffffffffff168173ffffffffffffffffffffffffffffffffffffffff167f8be0079c531659141344cd1fd0a4f28419497f9722a3daafe3b4186f6b6457e060405160405180910390a35050565b600080fd5b600073ffffffffffffffffffffffffffffffffffffffff82169050919050565b60006200019d8262000170565b9050919050565b620001af8162000190565b8114620001bb57600080fd5b50565b600081519050620001cf81620001a4565b92915050565b600060208284031215620001ee57620001ed6200016b565b5b6000620001fe84828501620001be565b91505092915050565b61107480620002176000396000f3fe608060405234801561001057600080fd5b506004361061007d5760003560e01c80638da5cb5b1161005b5780638da5cb5b146100c6578063929e2e08146100e4578063a13cc76a14610100578063f2fde38b146101345761007d565b80630822e5e414610082578063565d878c1461009e578063715018a6146100bc575b600080fd5b61009c60048036038101906100979190610bff565b610150565b005b6100a66103b1565b6040516100b39190610d43565b60405180910390f35b6100c46103d7565b005b6100ce6103eb565b6040516100db9190610d43565b60405180910390f35b6100fe60048036038101906100f99190610d5e565b610414565b005b61011a60048036038101906101159190610d5e565b610460565b60405161012b959493929190610db8565b60405180910390f35b61014e60048036038101906101499190610d5e565b610570565b005b6101586105f3565b73ffffffffffffffffffffffffffffffffffffffff16600160009054906101000a900473ffffffffffffffffffffffffffffffffffffffff1673ffffffffffffffffffffffffffffffffffffffff16146101e7576040517f08c379a00000000000000000000000000000000000000000000000000000000081526004016101de90610e8e565b60405180910390fd5b60005b86518110156103a8576040518060a0016040528087838151811061021157610210610eae565b5b602002602001015169ffffffffffffffffffff16815260200186838151811061023d5761023c610eae565b5b6020026020010151815260200185838151811061025d5761025c610eae565b5b6020026020010151815260200184838151811061027d5761027c610eae565b5b6020026020010151815260200183838151811061029d5761029c610eae565b5b602002602001015169ffffffffffffffffffff16815250600260008984815181106102cb576102ca610eae565b5b602002602001015173ffffffffffffffffffffffffffffffffffffffff1673ffffffffffffffffffffffffffffffffffffffff16815260200190815260200160002060008201518160000160006101000a81548169ffffffffffffffffffff021916908369ffffffffffffffffffff16021790555060208201518160010155604082015181600201556060820151816003015560808201518160040160006101000a81548169ffffffffffffffffffff021916908369ffffffffffffffffffff1602179055509050506001816103a19190610f0c565b90506101ea565b50505050505050565b600160009054906101000a900473ffffffffffffffffffffffffffffffffffffffff1681565b6103df6105fb565b6103e96000610679565b565b60008060009054906101000a900473ffffffffffffffffffffffffffffffffffffffff16905090565b61041c6105fb565b80600160006101000a81548173ffffffffffffffffffffffffffffffffffffffff021916908373ffffffffffffffffffffffffffffffffffffffff16021790555050565b600080600080600080600260008873ffffffffffffffffffffffffffffffffffffffff1673ffffffffffffffffffffffffffffffffffffffff1681526020019081526020016000206040518060a00160405290816000820160009054906101000a900469ffffffffffffffffffff1669ffffffffffffffffffff1669ffffffffffffffffffff1681526020016001820154815260200160028201548152602001600382015481526020016004820160009054906101000a900469ffffffffffffffffffff1669ffffffffffffffffffff1669ffffffffffffffffffff1681525050905080600001518160200151826040015183606001518460800151955095509550955095505091939590929450565b6105786105fb565b600073ffffffffffffffffffffffffffffffffffffffff168173ffffffffffffffffffffffffffffffffffffffff16036105e7576040517f08c379a00000000000000000000000000000000000000000000000000000000081526004016105de90610fb2565b60405180910390fd5b6105f081610679565b50565b600033905090565b6106036105f3565b73ffffffffffffffffffffffffffffffffffffffff166106216103eb565b73ffffffffffffffffffffffffffffffffffffffff1614610677576040517f08c379a000000000000000000000000000000000000000000000000000000000815260040161066e9061101e565b60405180910390fd5b565b60008060009054906101000a900473ffffffffffffffffffffffffffffffffffffffff169050816000806101000a81548173ffffffffffffffffffffffffffffffffffffffff021916908373ffffffffffffffffffffffffffffffffffffffff1602179055508173ffffffffffffffffffffffffffffffffffffffff168173ffffffffffffffffffffffffffffffffffffffff167f8be0079c531659141344cd1fd0a4f28419497f9722a3daafe3b4186f6b6457e060405160405180910390a35050565b6000604051905090565b600080fd5b600080fd5b600080fd5b6000601f19601f8301169050919050565b7f4e487b7100000000000000000000000000000000000000000000000000000000600052604160045260246000fd5b61079f82610756565b810181811067ffffffffffffffff821117156107be576107bd610767565b5b80604052505050565b60006107d161073d565b90506107dd8282610796565b919050565b600067ffffffffffffffff8211156107fd576107fc610767565b5b602082029050602081019050919050565b600080fd5b600073ffffffffffffffffffffffffffffffffffffffff82169050919050565b600061083e82610813565b9050919050565b61084e81610833565b811461085957600080fd5b50565b60008135905061086b81610845565b92915050565b600061088461087f846107e2565b6107c7565b905080838252602082019050602084028301858111156108a7576108a661080e565b5b835b818110156108d057806108bc888261085c565b8452602084019350506020810190506108a9565b5050509392505050565b600082601f8301126108ef576108ee610751565b5b81356108ff848260208601610871565b91505092915050565b600067ffffffffffffffff82111561092357610922610767565b5b602082029050602081019050919050565b600069ffffffffffffffffffff82169050919050565b61095381610934565b811461095e57600080fd5b50565b6000813590506109708161094a565b92915050565b600061098961098484610908565b6107c7565b905080838252602082019050602084028301858111156109ac576109ab61080e565b5b835b818110156109d557806109c18882610961565b8452602084019350506020810190506109ae565b5050509392505050565b600082601f8301126109f4576109f3610751565b5b8135610a04848260208601610976565b91505092915050565b600067ffffffffffffffff821115610a2857610a27610767565b5b602082029050602081019050919050565b6000819050919050565b610a4c81610a39565b8114610a5757600080fd5b50565b600081359050610a6981610a43565b92915050565b6000610a82610a7d84610a0d565b6107c7565b90508083825260208201905060208402830185811115610aa557610aa461080e565b5b835b81811015610ace5780610aba8882610a5a565b845260208401935050602081019050610aa7565b5050509392505050565b600082601f830112610aed57610aec610751565b5b8135610afd848260208601610a6f565b91505092915050565b600067ffffffffffffffff821115610b2157610b20610767565b5b602082029050602081019050919050565b6000819050919050565b610b4581610b32565b8114610b5057600080fd5b50565b600081359050610b6281610b3c565b92915050565b6000610b7b610b7684610b06565b6107c7565b90508083825260208201905060208402830185811115610b9e57610b9d61080e565b5b835b81811015610bc75780610bb38882610b53565b845260208401935050602081019050610ba0565b5050509392505050565b600082601f830112610be657610be5610751565b5b8135610bf6848260208601610b68565b91505092915050565b60008060008060008060c08789031215610c1c57610c1b610747565b5b600087013567ffffffffffffffff811115610c3a57610c3961074c565b5b610c4689828a016108da565b965050602087013567ffffffffffffffff811115610c6757610c6661074c565b5b610c7389828a016109df565b955050604087013567ffffffffffffffff811115610c9457610c9361074c565b5b610ca089828a01610ad8565b945050606087013567ffffffffffffffff811115610cc157610cc061074c565b5b610ccd89828a01610bd1565b935050608087013567ffffffffffffffff811115610cee57610ced61074c565b5b610cfa89828a01610bd1565b92505060a087013567ffffffffffffffff811115610d1b57610d1a61074c565b5b610d2789828a016109df565b9150509295509295509295565b610d3d81610833565b82525050565b6000602082019050610d586000830184610d34565b92915050565b600060208284031215610d7457610d73610747565b5b6000610d828482850161085c565b91505092915050565b610d9481610934565b82525050565b610da381610a39565b82525050565b610db281610b32565b82525050565b600060a082019050610dcd6000830188610d8b565b610dda6020830187610d9a565b610de76040830186610da9565b610df46060830185610da9565b610e016080830184610d8b565b9695505050505050565b600082825260208201905092915050565b7f4f776e61626c653a2063616c6c6572206973206e6f7420746865206f7261636c60008201527f654d616e61676572000000000000000000000000000000000000000000000000602082015250565b6000610e78602883610e0b565b9150610e8382610e1c565b604082019050919050565b60006020820190508181036000830152610ea781610e6b565b9050919050565b7f4e487b7100000000000000000000000000000000000000000000000000000000600052603260045260246000fd5b7f4e487b7100000000000000000000000000000000000000000000000000000000600052601160045260246000fd5b6000610f1782610b32565b9150610f2283610b32565b9250828201905080821115610f3a57610f39610edd565b5b92915050565b7f4f776e61626c653a206e6577206f776e657220697320746865207a65726f206160008201527f6464726573730000000000000000000000000000000000000000000000000000602082015250565b6000610f9c602683610e0b565b9150610fa782610f40565b604082019050919050565b60006020820190508181036000830152610fcb81610f8f565b9050919050565b7f4f776e61626c653a2063616c6c6572206973206e6f7420746865206f776e6572600082015250565b6000611008602083610e0b565b915061101382610fd2565b602082019050919050565b6000602082019050818103600083015261103781610ffb565b905091905056fea2646970667358221220da6db237db8cde5c9fbb333005cab45f8b3dd774887aaa882483a13e22080c4064736f6c63430008130033",
  "linkReferences": {},
  "deployedLinkReferences": {}
}